:0200000480007A
:100000006F0000109A0600809A0600800000000031
:100010009A0600809A0600809A0600800000000080
:100020009A0600809A0600809A0600809A06008050
:100030009A0600809A0600809A0600809A06008040
:10004000000000009A0600809A0600809A06008050
:100050009A0600809A0600809A0600809A06008020
:100060009A0600809A0600809A0600809A06008010
:100070009A0600809A0600809A0600809A06008000
:100080009A0600809A0600809A0600809A060080F0
:100090009A0600809A0600809A0600809A060080E0
:1000A0009A0600809A0600809A0600809A060080D0
:1000B0009A0600809A0600809A0600809A060080C0
:1000C0009A0600809A0600809A06008000000000D0
:1000D0009A0600809A0600809A0600809A060080A0
:1000E0009A0600809A0600809A0600809A06008090
:1000F0009A0600809A0600809A0600809A06008080
:1001000073700430732540F11375F50F8145631248
:10011000B510971100109381618B17020010130224
:10012000627A170101101301E1ED9302002073A020
:10013000027D970200009382E2EC73907230970286
:1001400000009382E24F7390C27E73E0C07E9702FC
:1001500000009382220F739052309302F00373B029
:10016000523073E0513073F002321705000013056E
:100170006515970500009385E5146300B5021766C1
:1001800000001306A6B963FAC5008322050023A068
:10019000550011059105E3EAC5FE1705001013058A
:1001A00065E6970500109385E5E5630EB5001386B7
:1001B00081EF63FAC5008322050023A055001105D5
:1001C0009105E3EAC5FE138581EF9385810C637782
:1001D000B500232005001105E36DB5FEEF00406773
:1001E000EF10205B4520EF002077970200009382FC
:1001F000623D739052309302F00373B0523073E05B
:100200005130A14273A0027D014581455528EF0080
:10021000B00773005010F5BF13000000130000007A
:100220001300000013000000130000001300000082
:100230001300000013000000130000001300000072
:1002400073005010F5BF0000000000000000000027
:10025000000000000000000000000000000000009E
:10026000000000000000000000000000000000008E
:10027000000000000000000000000000000000007E
:08028000000000008280000074
:1002C000EF52702019710A85EF009002035501006A
:1002D00009616F50F01F0000254723ACE1EE7D550A
:1002E0008280000073F000817300501073F0008171
:1002F0007300501073F000817300501073F0008190
:100300007300501073F000817300501073F000817F
:100310007300501073F000817300501073F000816F
:1003200073005010C1B700007D15854763E6A70034
:1003300089670145DCC1828025477D5523ACE1EE0C
:100340008280000005458280000000000545828013
:1003500000000000594723ACE1EE7D55828000008B
:100360000145828000000000EF52F015611132C299
:10037000631F051A630B061A137776002E848144D7
:1003800045CB85466308D7088946630AD7068D465C
:10039000630CD7049146630ED70295466300D702DB
:1003A0009946631AD716373501109D2633079400F6
:1003B0002300A7002947630CE51485043735011095
:1003C000812E330794002300A70029476301E51419
:1003D0008504373501102D2E330794002300A70024
:1003E00029476306E51285043735011015263307C2
:1003F00094002300A7002947630BE51085043735D7
:1004000001103926330794002300A7002947630011
:10041000E510850437350110E52C330794002300DF
:10042000A70029476305E50E850492476381F40E12
:1004300037350110F12C2A87B30694002380E6009B
:10044000A947373501106304F70C850426C0C92479
:100450002A87B30694002380E600A94737350110A8
:100460006307F70A752485042A87B306940023805E
:10047000E600A94737350110630BF70802479304DC
:10048000270079242A87B30694002380E600A94731
:1004900037350110630DF7060247930437008D2CA2
:1004A0002A87B30694002380E600A9473735011058
:1004B000630FF704024793044700992C2A87B30679
:1004C00094002380E600A947373501106301F70443
:1004D0000247930457002D2C2A87B30694002380EB
:1004E000E600A947373501106303F702024793047A
:1004F0006700392C330794002300A700A94763083D
:10050000F5000247930477009247E393F4F22685BF
:1005100021016F50E07B37350110DD2A2300A40054
:100520002947E306E5FE8544BDBD8144CDB7FD54B2
:10053000F9BF0000B706009003A7861C3A95938781
:10054000810C636DF500B70701909387078063E71F
:10055000A70023A4A61C3A85828001007D573A8516
:1005600082800000EF5220766111AE84328432C264
:10057000EF10402929C105C0B38784003EC029443B
:1005800083C5040037350110638C850091228504F2
:100590008247E397F4FE124521016F50607301001A
:1005A000B5453D22A285373501101D2285048247BD
:1005B000E398F4FCCDB77D55C5B7000000000000FE
:1005C000130181FC06C012C216C41AC61EC82ACA6C
:1005D0002ECC32CE36D03AD23ED473D0E57E735094
:1005E000F67E73D0B67E732520348A85312ED252A2
:1005F0007390427CC25273901234B2527390223480
:1006000082401242A2423243C2435245E245724600
:1006100082561257A2571301810373002030000045
:1006200000000000000000000000000000000000CA
:10063000000000000000000000000000130181FC29
:1006400006C012C216C41AC61EC82ACA2ECC32CE82
:1006500036D03AD23ED473D0E57E7350F67E73D056
:10066000B67EF390D07E73700430D2527390427C89
:10067000C25273901234B2527390223482401242AA
:10068000A2423243C2435245E24572468256125755
:10069000A257130181037300203001A00000000065
:1006A000AA871DC1370700900327C71CB355B7029F
:1006B0000145FD158CCF98471367170098C7D84799
:1006C00013671700D8C782807D5582800000000024
:1006D000AA8705CD984363570702984363540702DE
:1006E0009843635107029843635E07009843635B36
:1006F00007009843635807009843635507009843E1
:10070000E34A07FC01458CC382807D55828000004E
:1007100005CD5C4163D707025C4163D407025C41AD
:1007200063D107025C4163DE07005C4163DB0700C5
:100730005C4163D807005C4163D507005C41E3CAB4
:1007400007FC13F5F70F82801305F00F8280EF523C
:100750008057138701F118471301C1FD13064700A5
:100760000C42930641FAECCE0C43ACD21042F0D2CC
:10077000F04EF452938701F16304D60018433AC255
:10078000224792429847130647000C42930641FACB
:10079000ACD60C43ECD61042B0DAB056B45A63046F
:1007A000D60018433AC85247C245732300B0E38BC2
:1007B000B2FC98471306470083220600930641FACD
:1007C00023AA56068322070023AC56061042F0DE09
:1007D000F05AF45E6304D60018433ACE0257F2444E
:1007E0008D8C732400B0E3E6A4FC33046440B3753D
:1007F000940226868146335494021395F500C581F0
:10080000EF30E0653E042295130141026F50404CE9
:10081000EF52604B0545253F130540060D3F6F50D5
:10082000204B0000EF52204AAA84294481453735E5
:1008300001107D14713D7DF8A94537350110493D02
:100840003735011044C1914561356F506048000053
:10085000B7B7C40437070090938707402326F71CD7
:1008600082800000EF5220462A84011108591C485A
:100870005844144450402ACE48542ACC08542ACA1A
:1008800048502AC808502AC6484C2AC4084C2AC2D4
:10089000032344011AC013850186AE840C40EF0087
:1008A000706A8D476385F40005616F5060424C5853
:1008B0001385418FEF001069C5BF0000EF52A040C3
:1008C000AA87138541902E84BE85EF00B067F3257B
:1008D000907C13858191EF00F066F3251034138529
:1008E000C192EF003066F325303413850194EF0098
:1008F0007065F32540F113854195EF00B0648D4597
:1009000022858D3701A000008567FD173377F5003C
:10091000E54663EFE600938741F20A07BA979C43E6
:1009200085C7EF52403A829701456F50603A010007
:10093000630EF700B71700809387C78BEF52A0387C
:10094000829701456F50C03801458280938741F2FC
:10095000BC57E1FBD5BF0000732740F115EFF3272B
:1009600020FC9396F70063DE0604F327707F93F76D
:1009700007C0938601F1370602009CC23E96B70578
:100980000300D0C2BE95370604008CC63E96B7055C
:100990000500D0C6AE979CCAF32720FC93F707202A
:1009A00099C373E0A07CF32720FC93F7074081C72D
:1009B000C16773A0A77C0F00F00F0F10000019CBC8
:1009C0008280938701F1B706000CD4C3B7060002FA
:1009D00094C7D9B7EF52202F253DF165AA87370478
:1009E000009093850520373501102326F41C4D39DE
:1009F00013864196938501971385C197EF00905414
:100A00009385C1991385019AEF00D0538325C41CA7
:100A10001385419BEF001053F32540F11385C19CD2
:100A2000EF00505237170080938641F21307C78BAF
:100A30001386860698C2D8C29387860098C3D8C307
:100A400098C7D8C798CBD8CB98CFD8CF9387070271
:100A5000E396C7FE938701F1B8D6D843A3050700F4
:100A6000D8435843D0438346060093F6160E23001E
:100A7000D600D44393574701F98B03C70600D98F9B
:100A80002380F6006F50C02471BB000082800000FC
:100A90008280000023120000835760002310F500BD
:100AA000835760002311F500835760002312F5007F
:100AB000835760002313F500835760002314F5006B
:100AC000835760002315F500835760002316F50057
:100AD000835760002317F5008280000065BF000087
:100AE000854726056304F6002E9582800D8D828051
:100AF000EF52601D130141F92A844818C537835706
:100B0000410306478346B1058342A1051375F71FCC
:100B10003AC213F7160093F5F20F3A862310F40049
:100B2000231351023AC02AD4653F1247F644935624
:100B3000070193D784000343C105858B3AD013F78F
:100B4000F61F9375F30F3E8648C03A852312610263
:100B50003AD63EC27137964713F7F71FE18093F6F6
:100B600014003ECE3AD8BA870347E105368693751E
:100B7000F70F08C43E85231AE10036C49537865323
:100B8000C64493D6830013D604019377F61F034718
:100B90000106858A36869375F70F48C43E851ECCBC
:100BA0003EC6231BE10036C8253F8355A1030356EB
:100BB0006104025783276103935697005CCC08C8F1
:100BC0002310B40210CC231A0400858A0353410277
:100BD00083526102E243F247638C06148545225535
:100BE0000D46AE862311A402231AB40093156700A4
:100BF00063D805003257B2862312E402231AC400D8
:100C0000A583858B91CB93E64600C206C182C2576D
:100C10002313F402231AD400824799C793E60601EE
:100C2000C206C182231AD40023145402924799C7E2
:100C300093E60602C206C182231AD4002315640279
:100C4000A24789C793E60604231AD4000353C103BD
:100C5000A657B7060F00FD8E9A9636C083564101FF
:100C6000E5802316D40282460355E1038355C1046F
:100C700003568105564714D8A64693F21400135321
:100C8000970034C0B246231AA4022312B40450DCE5
:100C9000231C54022313D404137313009684630695
:100CA000030093E42200231C94029376F71F23147D
:100CB000D4049316670063D6060093E44400231C13
:100CC000940241831377F71F2315E404424709C7B1
:100CD00093E40401231C9402035761012316E404E6
:100CE000139773006356070093E40402231C9402D5
:100CF00016578346210621832317D404058B09C781
:100D000093E40404231C9402D1830356E104BD8BB5
:100D100003570105C20783464106B2972318D4043E
:100D20007CC8231CE4041301C1066F40707A0100E3
:100D30000946814665BD0000130181FD22D026CE03
:100D400006D2BA83AE823284B68401476358060065
:100D5000370700803344E6001307D0023253238064
:100D6000E7001373F3FD930760048D466308F300F7
:100D70009307B3FB93B717008946BE943C083EC265
:100D80005C083EC02687A257968522861EC81AC6D2
:100D900016C4EF00F03B130770043243AA87A24247
:100DA000C2436313E30293F3130033079500639D7B
:100DB00003046247C2561D8F9250025498C2F244F7
:100DC0003E851301810282809306600433079500FB
:100DD000631CD30203460500930600036313D60287
:100DE0002AC8014616858146A2853AC616C4EF3048
:100DF0003070A2423247C24709C58546858E2256C9
:100E000014C2A25694423697014681461685A285A1
:100E10003EC63AC4EF30D06D2247B24711E13ACC1A
:100E200013060003E246E3F6E6F8938516002ECC9F
:100E30002380C600C5BF2300C5009307B00263D658
:100E40000500B305B0409307D002A300F500A54705
:100E500063D4B7066111130771003A8329469302E0
:100E60003006B3E7C502BA867D1793870703A38FC1
:100E7000F6FEAE87B3C5C502E3C5F2FE93072500B3
:100E80009382E6FF93850503A30FB7FE3E86168780
:100E9000636D670001476365530013079100158F69
:100EA000BA973385A7402101828005068345070054
:100EB0000507A30FB6FEE9BF930700032301F50062
:100EC0009385050393074500A301B5003385A7402B
:100ED0008280130181F986D2A2D0A6CE2E84BA8454
:100EE00032CA36CC2AC8EF00300A1C413E853ED6B5
:100EF000EF009011834784013ECE1C403ED413F78F
:100F000007102AD882CA9C4069CB1387470098C033
:100F10009843144336DE5443B6C01447B6C258470C
:100F20006818BAC4EF405034AA822E839314130079
:100F300097F7FF0F9387872A98438580DC43232404
:100F400054042326640416853A86BE86A6851ADCD8
:100F500016DA3AD03ED2EF40701CD252625351E5BD
:100F6000025616859256A6851ADA16D0EF30706AA8
:100F700082525253635BA0060146814616859A85CC
:100F8000EF303069635605009307D002A301F404E3
:100F900017F7FF0F1307C7413AD093077004724742
:100FA00063E7E70097F7FF0F938747403ED08D47F1
:100FB0001CC8A257ED9B1CC002D46247D246B008A1
:100FC000A28542453921FD54631595167D559650ED
:100FD0000654F6441301810682801387870098C067
:100FE00083A2070003A3470091B716869A86168549
:100FF0009A8516DA1AD0EF4070120253D25215C5F4
:10100000635603009307D002A301F40417F7FF0F00
:101010001307873A3AD0930770047247E3E9E7F879
:1010200097F7FF0F9387073951B772479374F70DFE
:101030005C407D576393E70899475CC0A25713E76C
:10104000074018C0DC083EC4F2473EC29C083EC0C0
:1010500002C69307F104968554401A864245E93941
:101060002AD093077004C6456390F406F55763C50C
:10107000F5005C4063DBB708F247F91793F7F70F09
:101080003ECEFD15724613050405AEC86D335647B6
:10109000B307A7002AD41CC8854663C5E6001840DC
:1010A000758F19C385071CC88347F104E38707F0D0
:1010B0009307D002A301F40409B713077004E39F58
:1010C000E4F6ADFF854795BF930750067247E3FAF4
:1010D000E7FA930760067247631CF7025C40635BA4
:1010E000B0000CC881E71840058B09CF8507AE9783
:1010F0001CC809A889E71840058B854619C3938643
:10110000270014C82CCC02D445B7930770063ECEF6
:10111000D64763C9F5001C400CC8858BE5D793877B
:101120001500F9B705476344B00009470D8FBA971A
:10113000C1B71C4013F707401DE314480256D245BF
:101140004245E2478297E30395E81C40898B639010
:101150000728E6474844E35CF5E63E858DBD130766
:101160005006F2466371D71C0146814628446C4400
:10117000EF30103839ED854617F6FF0F13060624B9
:10118000D2454245E2478297E30295E4D6473ECEF8
:101190007247C64763C5E7001C40858BDDD7E24731
:1011A000C2563256D24542458297FD578144E30FDD
:1011B000F5E0F247FD17E3DAF4F8E2478546130657
:1011C000A401D24542458297FD57E301F5E085042D
:1011D000CDB7C647634BF006854617F6FF0F1306DB
:1011E000E61DD2454245E2478297E30195DED647A8
:1011F0003ECE7247C647D98F81E71C40858BB1D759
:10120000E247C2563256D24542458297FD57814445
:10121000E30EF5DAC647B307F04063CCF400F246BC
:101220000256E247D24542458297FD57E31FF5F04B
:1012300071BBE24785461306A401D2454245829719
:10124000FD57E305F5D88504F1B7D6473ECE244CCB
:1012500063D39700BE846348900693C7F4FFFD876D
:101260000147FD8C3C4CB38697406348D706464700
:10127000F2466342D7081840058B35EF7247C644E3
:10128000F2461D8FB384964063539700BA8463403F
:10129000900893C7F4FFFD870147FD8CC647F246CF
:1012A000B387F640858FE352F7EAE2478546130697
:1012B000A401D24542453AD08297FD57E308F5D0C4
:1012C00002570507E1BFE247A6860256D2454245CE
:1012D0008297FD57E313F5F8D5B9E2478546130623
:1012E000A401D24542453AD48297FD57E300F5CE9A
:1012F0002257050785BF3ED4C256E2473256D24533
:10130000424582977D57A257E31AE5F6C1B10257CD
:101310003306F700A686E247D24542458297FD573D
:10132000E319F5F665B156473ACE854663C4E60043
:10133000F58FBDCB85460256D2454245E24782979E
:10134000FD54E30595C8C2563256D2454245E247A0
:101350008297E30D95C6F247A69701468146284439
:101360006C443ECEEF30D01815CD8257F24613862E
:101370001700D2454245E247829763119502B9B101
:10138000E24785461306A401D24542458297FD57A0
:10139000E30EF5C28504F247E3C4F4FEA256130639
:1013A000040541B58144C5BF0256E1B7E247854611
:1013B00013069401D24542458297FD57E308F5C0D4
:1013C00085045C446647998FE3C2F4FE59B38144B7
:1013D000CDBF111122CA26C836C2BA8406CC2AC093
:1013E000944598492E8432836353D700368723204F
:1013F000E3008346340481C605072320E300184038
:101400001377070211C70327030009072320E3000E
:101410001840198B29CF18408346340413770702EC
:10142000B336D00035EF13063404924502451AC492
:1014300082947D576300E5061440998A114601475E
:101440002243639AC600832603005844158F9346AF
:10145000F7FFFD86758F144410486354D600918EB3
:1014600036978147631DF704014535A005075444AD
:1014700003260300918EE350D7FA854613069401A4
:10148000924502451AC63AC48294FD562247324319
:10149000E31ED5FC7D55E2405244C2447101828076
:1014A0003306D4009305000313871600A301B60486
:1014B0000346540422978906A301C704ADB78546A5
:1014C0001306A401924502453EC63AC48294FD56D5
:1014D000E302D5FCB2478507224769B7011122CC48
:1014E00006CE26CA32C236C42AC003C68501930678
:1014F00080072E8463E2C602930620069385350496
:1015000063E1C6026304061C9306800517F5FF0F0E
:10151000130505EB6302D614930424042301C404C9
:1015200005A89306D6F993F6F60F5545E366D5FE62
:101530001385C1A18A06AA969442AA96828614436C
:101540001386460010C39842930424042301E40444
:10155000054771AA14400323070013F60608130574
:10156000430015C208C38326030063D8060013078F
:10157000D002B306D040A301E40417F5FF0F130512
:1015800025E42947A9A013F606048326030008C30F
:1015900069DEC206C186D1BF0323040008439372EB
:1015A00003081441110563980200137303046304D4
:1015B0000300C206C18208C31307F00617F5FF0F28
:1015C000130505E0631CE60C2147A3010404504009
:1015D00010C4634B0600032304001373B3FF2320DE
:1015E0006400558EAE8419CEAE8433F6E602FD1447
:1015F0002A96034606002380C4003686B3D6E60248
:10160000E375E6FEA146631ED7001840058B11CB9B
:10161000544018486347D70013070003A38FE4FE24
:10162000FD14858D0CC8224792461008A2850245FC
:101630004D337D576311E50C7D55F2406244D24431
:1016400005618280144093E6060214C013068007E9
:1016500017F5FF0F130505D8A302C4041040032398
:1016600007009372060883260300110363980200A3
:101670009372060463840200C206C18223206700BD
:101680001377160001C71366060210C099C24147BE
:101690002DBF18401377F7FD18C0D5BF294735B7C0
:1016A000104014439372060848481383460063872A
:1016B000020023206700984208C309A8232067007E
:1016C0001376060498426DDA2310A700232804003D
:1016D000AE8491BF14431386460010C38442504029
:1016E00081452685692019C1058D48C0584018C814
:1016F000A30104040DBF1448268692450245A24763
:1017000082977D57E30AE5F21840098B15EB4247B3
:101710004844E354E5F23A850DB785461306940133
:1017200092450245A2473AC68297FD56E306D5F098
:101730003247050754444246918EE340D7FEC1BF6D
:101740000147CDBF11113ECC97F7FF0F83A787A8A4
:1017500032C636C82EC43ACA34002A868C473E8523
:1017600006C236C0EF10F00C92407101828093F5F2
:10177000F50F2A966314C500014582808347050052
:10178000E38DB7FE0505FDB717F5FF0F1305059CA3
:101790008280511122C217470000130727581744AF
:1017A00000001304A457198C26C006C40984814480
:1017B000639484021747000013074756174400003C
:1017C0001304C455198C0984814463928402A24095
:1017D000124482443101828093972400BA979C433B
:1017E000829785041747000013074753D1B7939793
:1017F0002400BA979C43829785041747000013077B
:10180000E751E1B76FE09FB4AA8703C707008507D8
:101810006DFF3385A7407D158280111122CA06CC49
:1018200026C880491C4963C387127D1493874501EC
:10183000931624003EC413034501B6973EC09A9602
:101840009C4398428507B354F7022A86636AF706D9
:101850009A839382450102C2814083A702001395B7
:1018600007014181C183124791029103330595021B
:10187000B38797023A951357050142054181BA97FC
:1018800013D707013AC203A7C3FF42074183098F59
:10189000C20703A5C3FF06974181C183B307F54083
:1018A00013550741AA97420793D007414183C207C6
:1018B0005D8F23AEE3FE8247E3F157FA9C42B5CB3E
:1018C00032851AC632C2EF10204A634B05043243F8
:1018D0009A85A2468142124688429C41139707018D
:1018E00093130501418393D3030133077740169780
:1018F0004181C183898F13550741AA97420793D22B
:1019000007414183C2075D8F98C1910682479105C7
:10191000E3F4D7FC931724009A9798431DC38504DA
:101920002685E2405244C244710182809C4289E78C
:101930007D14F116E36CD3FE00CA59B7984309E74A
:101940007D14F117E36CF3FE00CAD1BF0145D1BF8E
:10195000130141F8A2DAA6D8BECA86DC2AC036DA5C
:10196000BAC02EDC32D65C4D2E84B28485EF414560
:10197000EF00B0498247C8CF11ED97F6FF0F93866D
:1019800026AD01469305F00E17F5FF0F1305C5AD03
:10199000EF10307C232205002324050023200500BE
:1019A000232605008247DC4F8C4391CDD8438547E1
:1019B000B397E7009CC5D8C10245EF00F0678247A6
:1019C000DC4F23A0070063D20404854776571396A3
:1019D00014001CC3935716003ED6B707F07F32574A
:1019E0007D8F631AF70489679387F77056471CC386
:1019F000B257B207B183C18FE38C073A8A4791EBA4
:101A000097F7FF0F938787A495A0F65723A00700A9
:101A1000E9B797F7FF0F938767A33ECA97F7FF0FC2
:101A20009387F7A20A471CC3E65056545245C65442
:101A30001301C107828032539A850146814622856F
:101A40009AC41AC2A2C8EF30A02A124315E18547F2
:101A500056471CC38A4799C797F7FF0F9387179676
:101A60000A471CC397F7FF0F938747953ECA6DBF80
:101A7000B810F4101A86A2850245EF106048B257DC
:101A800013D74701A6572AC41377F77F3ECA6301CD
:101A90000714A647B207B183B706F03F130717C074
:101AA000D58F3AC6228582CE17E7FF0F13078773BB
:101AB00010435443BE85EF30F00897E7FF0F93873C
:101AC000E7729043D443EF30403F97E7FF0F93878F
:101AD00067729043D443EF20C06DAA8432452E84B0
:101AE000EF30706D97E7FF0F938747719043D443B2
:101AF000EF30A03C2A86AE862685A285EF20606B5B
:101B0000AA842E84EF30D0642AC2014681462685FD
:101B1000A285EF300030635E05001245EF30B069FA
:101B20002686A286EF30C01C92473335A000898FED
:101B30003EC20547BAC6D947124763E2E7020E071D
:101B4000938781B8BA979043D4434645A645EF3072
:101B5000402C635505009247FD173EC282C63247AE
:101B6000D247998F1387F7FF3AD402CC6357070007
:101B70000547B307F7403ECC02D4924763CE07082F
:101B8000A2571247BA973ED4BAC202D2A5475257BB
:101B900063E8E70E9547054463D6E7009307C7FF60
:101BA0003EDA0144914752576301F7089547630DA8
:101BB000F70A89476308F70A8D4702DE6308F70AC8
:101BC00085473EDEFD573ED83ECE82C0C947ADA018
:101BD000D247B654BE94138724439307000263D9B7
:101BE000E70293070004998F3257B317F700138762
:101BF00024413357E40033E5E700EF3030621387C8
:101C0000F4FFB70710FE3AC60547AE97BACE69BDD6
:101C1000998F3315F400D5B7E2471247998F3ECC20
:101C2000B307E0403ED282C295B785473EDE864785
:101C3000635CF0043ED83ECE0247544F81451147C5
:101C40001306470163F7C704CCC20245EF007034A6
:101C50002ACA39E197F6FF0F938606860146930557
:101C6000F01A1DB302DEE1B785473EDE9247064714
:101C7000BA973ED885073ECEE340F0FC85476DBF5E
:101C8000054402DA22DE3DBF85473ED83ECEBEC0C7
:101C900065B7850506076DB78247DC4F524798C385
:101CA000B947724763ECE718630A04189247635216
:101CB000F00813F7F70092460E07938781B893D484
:101CC0004640BA9793F6040198430944DC438DC219
:101CD000938601B690524645D452A6453ED03AC6A8
:101CE000EF20D029BD882ADC2ED60D4482573247FA
:101CF000138301B681EC3A86BE866257B2573A85A5
:101D0000BE85EF20B0272ADC2ED6B1A893F61400AA
:101D100091CE03260300832643003A85BE851AC66A
:101D2000EF30A01905042A87AE873243858421034A
:101D3000D1B79247094485CBB304F04013F7F400C0
:101D40000E07938781B8BA979043D4434645A6457A
:101D5000EF30A0162ADC2ED69184138301B681477A
:101D600063920416CDF33647E257B254630C07165C
:101D700017E7FF0F13070749104354433E85A68515
:101D80003EC6EF300009635F0514F2476380071613
:101D9000C2576351F00A9247FD1717E7FF0F130769
:101DA000E7463ED0B2473E8510435443A685EF3008
:101DB000C0102ADC2ED60504C2573253E2522285C7
:101DC000BECC9A8416C6EF30103FE2521686A68625
:101DD000EF30A00E17E7FF0F1307C743104354431C
:101DE000EF20203D3704C0FCE6472E946394071093
:101DF00097E7FF0F93878742E2522AC69043D44366
:101E0000A6851685EF30005432473A86A2862AD638
:101E1000AE84EF209075634CA058B707008032471E
:101E2000A18F32533A86BE861A85A685EF20707E32
:101E3000634F0504C6473EDCA6473ED6B65763CD82
:101E40000732394792466349D73213973600938752
:101E500081B8BA979843DC433EC83AC6864763DDEB
:101E60000720F247634AF0209DE397E7FF0F93872F
:101E7000E73A9043D4433245C245EF3000046257FD
:101E8000B2573A86BE86EF20506E6340055202D2AA
:101E900002C6864793C7F7FF3ED05244814492550D
:101EA0000245EF007019B247638A071A99C4638626
:101EB000F400A6850245EF003018B2450245EF0058
:101EC000B01769AA13F7140019CB03260300832661
:101ED00043001AC6EF20707E05048547324385848F
:101EE0002103BDBD92473ED0F247C1BD92473ED0CF
:101EF0008147E1B59386F7FF8E06138781B8369741
:101F0000104354435247BA97BECCF257D5CB97E70C
:101F1000FF0F938727312AD6CC43884322DCEF205A
:101F2000F005B252A2861686EF30C0412AD62EDCCA
:101F30005244A6853245EF30B021AAD0EF30B02709
:101F40002A86AE863245A685EF30C03F8657050407
:101F500093870703A30FF4FE3256E256AA842EC6D7
:101F6000EF20306B634C050E97E7FF0F93878729AF
:101F70002686B2468843CC43EF30C03C3256E25608
:101F8000EF203069634D0518E647E305F4EA97E76B
:101F9000FF0F9387A7279043D4433255E255EF2094
:101FA000D07197E7FF0F938767262AD62EDC268508
:101FB000B2459043D443EF2050702AC6AE8495BFFB
:101FC000A285EF20906FE6472ADCAED03ED6524481
:101FD000A6853245EF30D017AAD2EF30D01D2A8621
:101FE000AE863245A685EF30E035965793870703D6
:101FF0000504A30FF4FE2AC6E647AE846313F40675
:1020000097E7FF0F938707229043D4436255865585
:10201000EF20201A2A86AE863245A685EF20F0549E
:10202000634FA00E97E7FF0F9387C71F6256865630
:102030008843CC43EF3000312A86AE863245A685F0
:10204000EF20305DE35805DE930700033254130799
:10205000F4FF3AD60347F4FFE30AF7FE82573EC285
:1020600069A897E7FF0F9387671A9043D443EF203F
:10207000D0642AC6AE84A9BFD246724693841600A5
:10208000B2966257B25736CE3A85BE853246C246C0
:102090003AD23ED0EF20806EEF30900B2ACCEF305A
:1020A00090113246C246EF20506112578257AE86D9
:1020B0002A86BE853A85EF30E028E24693860603FD
:1020C000A38FD4FEF2462684639496082A86AE86B1
:1020D000EF20200E3246C2462ACEAE84EF20F048D2
:1020E000634DA002F2473246C2463E85A685EF20E8
:1020F000304001E5E247858B8DE3A2450245EF00C4
:10210000A073924785072300040056471CC38A47E3
:10211000E38C079080C36FF03F9192473ED0A28737
:10212000130790033E8483C6F7FFFD17639CE60008
:10213000D246E399F6FE025705073AD0130700038B
:102140002380E60003C7070005072380E70039B7AF
:1021500097E7FF0F9387870B9043D443EF20F05509
:10216000014681462AD02ECCEF2090388504E247E4
:102170000257E31B05F051B772576306071C05476A
:10218000D2566346D71876479387374309E79307B4
:1021900060032657998F9254624462473E973ACC27
:1021A0002257BA97854502453ED4EF0010052AC64E
:1021B0000DC0A257635FF0002257A28763538700C8
:1021C000BA8762471D8F3ACC22571D8CB307F74060
:1021D0003ED49257A1C3F257638B071695C026864B
:1021E000B2450245EF00B01CAA852AC62246024528
:1021F000EF0010042AD0A24502453D2D82573EC46F
:1022000092573386974063879700A2450245EF00B7
:10221000101A2AC485450245EF00207E2AD296472F
:102220006386073A3E86AA850245EF0050182AD2F7
:1022300085475257814463C8E702E25781448DE3E2
:10224000B257B20791EF32579357470193F7F77F91
:1022500081CBE24785073ECCA25785073ED4854413
:102260009647054591CF92579C4B8D0712578A0789
:10227000BA97C843EF00606D930700023385A7400B
:10228000A2573E957D8971C993070002898F114736
:102290006351F70CF147898F62473E973ACC22573A
:1022A0003E94BA973ED4E2476358F0003E86A2457A
:1022B0000245EF00F01B2AC4A2576358F0003E8687
:1022C00092550245EF00D01A2AD2B647C9CB925593
:1022D0002245EF007029635405089247FD17814697
:1022E0002946A24502453ED07D232AC4F257638584
:1022F000072E81462946B2450245712B2AC6C25790
:102300006341F00C8947525763C6E7065DA8F24760
:102310009384F7FF925763CD9700B3849740F247B9
:10232000E3DC07E6E24772473384E7408147B5B50F
:102330009257B387F4401647BA97BEC226D262447A
:10234000F247814499BD9254624402C695B5125633
:102350006DBDE38AE7F4F10781B78147EDBFF2472E
:10236000634AF00492473ED0F2473ED8894752571D
:1023700063D6E704C257E39E07B0925581461546DF
:102380000245112B2AD2AA852245EF00F01DE35207
:10239000A0B0D247138417005247930710032300BD
:1023A000F700825785073ED0D5BC92473ED002D277
:1023B00002C6C5B792473ED0F2473ED8F257638077
:1023C0000722635880002286B2450245EF00500A7A
:1023D0002AC632458DCC4C410245652E2A8411E92E
:1023E00097E6FF0F9386460D01469305F02E6FF09A
:1023F000AFD9B247904B09060A069385C70031054D
:10240000EF1020420546A2850245EF007006D24734
:1024100085073EC24257D247BA97B2443ED62AC633
:102420009247FD17925522453ECCEFF00FBF930720
:1024300005032ACEA68522453ED8EF00F0122AD405
:10244000925532460245EF0090155845AA858546BB
:10245000C25709EB2AD822453EDEEF00F010AA86CB
:10246000F257C255024536DE3ED8F926E25713F63A
:102470001700F256D25733E7F600518F1244C25775
:1024800019EF13079003638BE70422576355E000AD
:10249000F2479387170362472300F70009B42257D6
:1024A000634707005257A2554D8F518F31EBE354CC
:1024B000D0FE0546A24502453EC2EF00607B925524
:1024C0002AC4EF00700A92476346A00069F513F72B
:1024D000170071D313079003E39CE7FA9307900367
:1024E00062472300F700A287930690033E840347C8
:1024F000F4FFFD176305D70A05072380E70045B2FF
:102500006358D00013079003E38AE7FC850761B79F
:102510001247A30FF7FE924632576307D70481464E
:102520002946A2450245852E2AC4B247814629463E
:10253000A68502456399F400B92EAA842AC692475B
:1025400085073EC2F1BD812EAA8481462946B24547
:10255000024591262AC6E5B7425705446353E00079
:102560003A8452473A948144A245054602453EC208
:10257000EF00007092552AC4EF00007FE345A0F6FB
:1025800001E59247858BA5F3A287130700033E84DC
:1025900083C6F7FFFD17E38CE6FE6FF05F905247AE
:1025A000E316F7F4825785073ED093071003EDB585
:1025B00097E7FF0F9387C7E83ECA0A4797E7FF0FE1
:1025C000938787E8631007C66FF00FC60545D2579B
:1025D0008144E347F5CA95B1C257E359F0D80144A5
:1025E00092552245EFF06FA35247229793070503B8
:1025F0002300F70005044257E350E4F681462946DC
:10260000A2450245492C2AC4E1BFAA8517E5FF0F60
:10261000032545BC91A8411126C29384C1EF22C471
:1026200006C62AC098402E8409E78145EF10400F66
:1026300088C0A2850245EF10A00EFD5463199500D5
:102640007D542285B2402244924441018280130489
:1026500035007198E30785FEB305A4400245EF10ED
:10266000200CE31095FEE9BF938735003111F19BF3
:1026700026C406C822C62AC093848700314763FB5C
:10268000E406BA8463EAB4060245E528138301F040
:10269000032703003A842DE8A6850245AD3F7D5708
:1026A0002A84138301F06319E50C032403002287B5
:1026B0004DEB4DCC18402297814502453AC2EF10B0
:1026C000200612476314A70A0C408D8CA68502458C
:1026D0009937FD57630CF5081C40A697138301F04A
:1026E0001CC083270300D9CBD843631F870623A2CE
:1026F000070025A8E3D804F8824798C30145C240E3
:102700003244A244510182801040058E6348060481
:10271000AD4663FDC60204C0B3069400631687028B
:102720002320D3005C4090C2DCC20245B9281305C7
:10273000B4009307440061993307F540E301F5FCC9
:102740003A94898F1CC065BF54C3E9BF5C406315D0
:1027500087002320F300D1BF5CC3C1BF2287404064
:102760001DBF3A845843A9B7BA87B5BF0247B147DE
:102770001CC33A85192859B704C145BF232200005C
:102780000290138581F06F00107F138581F06F0038
:10279000B07E411122C426C206C65C4DAA842E8496
:1027A00095EB41459D35C8CC11ED97E6FF0F93861B
:1027B00026CA01469305B00617E5FF0F130505D19C
:1027C000EF102019232205002324050023200500F3
:1027D00023260500DC4CD8471DC7DC4C131724000A
:1027E000DC47BA97884331E18545B3978500138666
:1027F00057000A0626853EC0EF1060190DC18247BA
:1028000040C11CC52DA013061002914526853EC06F
:10281000EF10E0178247C8C7DC4CDC47DDFF0145FD
:10282000B2402244924441018280184198C3232837
:10283000050023260500EDB7511122C226C006C4AB
:102840005C4DAA842E8495EB4145C133C8CC11ED73
:1028500097E6FF0F9386C6BF01469305F00817E57C
:10286000FF0F1305A5C6EF10C00E23220500232479
:102870000500232005002326050009C8DC4C58402C
:102880000A07DC47BA97984318C080C3A240124495
:10289000824431018280211122C826C62AC02E849A
:1028A000844906CAD10501459C411393070113537E
:1028B00003013303C302C1830505B387C7023693FF
:1028C00093560301420313530301B69793D60701AE
:1028D000C2079A979CC19105E34895FCADC21C4480
:1028E00063C7F4044C408505024536C25D35AA87AE
:1028F000924611ED97E6FF0F938606BC01469305BD
:10290000A00B17E5FF0F130565BCEF1080041048FE
:1029100009069305C4000A06310536C43EC2EF001D
:102920005070A2850245093F92473E84A246938794
:1029300044008A07A297D4C31387140018C82285BD
:10294000D2404244B24461018280AA874167014576
:1029500063F4E700C20741453707000163F4E7006D
:102960002105A2073707001063F4E700110592075D
:102970003707004063F4E70009058A0763C90700C9
:1029800013971700050563440700130500028280B2
:102990001C4193F677002A8785C293F617000145FC
:1029A000A1EE93F6270089C685831CC30545828066
:1029B00089831CC30945828093960701C182014522
:1029C00099E2C183414593F6F70F99E22105A1836E
:1029D00093F6F70099E21105918393F6370099E297
:1029E0000905898393F6170081E68583050599C358
:1029F0001CC38280130500028280611122C02E84D4
:102A0000854506C2793311ED97E6FF0F9386C6AA76
:102A100001469305501417E5FF0F130525ABEF0092
:102A20005073054740C99240024418C92101828071
:102A3000011126CA06CE22CC9449184AAE87B28428
:102A400063C4E600AE84B287984B90483304E60036
:102A50009444CC40B3A68600B6953EC63AC432C074
:102A60000D3B2AC202462247B24711ED97E6FF0FFF
:102A7000938686A401469305201617E5FF0F1305DC
:102A8000E5A4EF00106D9246D1061315240036958B
:102A9000B68563EBA504938544010A062E960A07C2
:102AA0002EC693854701B387E50011473EC832C063
:102AB000938754013AC46369F600B3049640AD1499
:102AC000F198938744003EC4C24763E3F50263551F
:102AD000800071151C41F1CB924780CBF2406244DB
:102AE000D2443E850561828023A00500910555B73B
:102AF00083D30500638D0304368332468142184236
:102B000093170701C183B3877702418383240300AE
:102B1000C204C1801106110333077702A6978324EC
:102B2000C3FF969793D20401BA9213D70701169761
:102B3000C207C1839352070142075D8F232EE3FE34
:102B40008247E36EF6FAA247B69723A0570083D2D6
:102B50002500638902049C42324636838143035731
:102B6000060083542300C20733075702C1831106AE
:102B7000110326971E9793130701B3E3F300232E47
:102B800073FE8353E6FF835703004183B3835302ED
:102B90009E97BA97024793D30701E362E6FC224768
:102BA00036971CC39105910605B77D140DB7211109
:102BB00022C826C606CA2EC093773600AA8432845D
:102BC00091CBFD17138701B58A07BA9781469043C9
:102BD000D9312AC0098459C4DC4C9DEB4145EFF042
:102BE000DFA2C8CC11ED97E6FF0F938666860146FB
:102BF0009305301B17E5FF0F1305458DEF0070554A
:102C00002322050023240500232005002326050098
:102C1000DC4C904719EA9305102726853EC2F13B0C
:102C2000924788C72A86232005009377140089CF0E
:102C30008245268532C4ED3B2AC282452685EFF0C7
:102C4000BFBF92473EC02246058409CC084209E92D
:102C5000B285268532C2E93B124608C22320050010
:102C60002A86E1B7D24042440245B24461018280E3
:102C7000011126CAAE849357564083A30401BE9324
:102C800006CE22CC2AC0CC41938213009844634CD8
:102C90005702024532C83EC616C41EC2EFF07FAFCF
:102CA0002A849243A242B24742460DE197E6FF0FC3
:102CB0009386868001469305E01D17E5FF0F1305F7
:102CC000E580EF00104985050607D1B713074501D8
:102CD000BA85814663CEF60693C6F7FFFD86F58F6B
:102CE0008A0794483E978A06938744017D8ABE9658
:102CF0002DC6930500023383C540BA8081458843C1
:102D00003315C5004D8D23A0A0008C439107B3D58A
:102D100065009100E3E5D7FE13865401914763E710
:102D2000C600B3879640AD17F19B9107BA978CC345
:102D300099C193822300FD12024523285400A685E1
:102D4000EFF09FAF2285F2406244D2440561828059
:102D500023A0050085069105B5BF904310C39107D8
:102D60001107E3ECD7FEC1BF14499849AA87338500
:102D7000E6406395E6020A07D107D105B386E7006E
:102D8000BA95F116F115904298416307E6000545A2
:102D90006376E6007D558280E3E5D7FE82802111CF
:102DA00026C6AE842AC0B285268522C806CA3284C9
:102DB000653F05ED81450245EFF0BF9D11ED97D6CA
:102DC000FF0F9386666F01469305702317D5FF0F9B
:102DD0001305C56FEF00F03785471CC9232A05008E
:102DE000D2404244B244610182808147635605006B
:102DF000A687A2843E848547CC4002453EC2EFF0C0
:102E00005F99924709E997D6FF0F9386E66A0146D4
:102E10009305502465BF8C485CC513834401939788
:102E200025009A9718480A073EC093074401BA97AD
:102E3000130745013AC4514681423387C4008323B6
:102E400007003307C40018433AC283564100139762
:102E500003014183B306D7401247969693D30301EB
:102E6000418393D206413387E3401697C2069352BB
:102E70000741C1824207B303C500D98E110623A0C2
:102E8000D30033078600E36AF7FA9306540111472B
:102E900063E6D700818FAD17F19B3E97A2473A9327
:102EA000BA97BE831A8602476364E6021307D3FF0C
:102EB000024681466368E600130736003307674021
:102EC0009376C7FFB697F11798430DCB0CC909BF8E
:102ED000144213970601418316841697418793D2B3
:102EE0000601A2961697C20693520741C182420775
:102EF000D98E23A0D3001106910375B7FD15E1B754
:102F000001112EC4854522CC06CE26CA328436C095
:102F10003AC2EFF01F88224311ED97D6FF0F938638
:102F2000A65901469305F03017D5FF0F1305055A32
:102F3000EF003022370710009307F7FF13564401C4
:102F4000E18F1374F67FAA8411C0D98F3EC8630C39
:102F5000030468001AC6EFF0BFA34247B24531C16F
:102F600093070002898FB317F700CD8F3357A7005F
:102F7000DCC83AC8C2479CCCB337F00085079CC870
:102F800005CC1306D4BC82472A9690C393075003FE
:102F90001247898FF24062441CC32685D2440561E2
:102FA0008280CCC8C1BF0808EFF09F9EC247DCC832
:102FB000130505028547E1B71307E5BC824698C2B1
:102FC000139727002697084B3EC0EFF01F988247C3
:102FD00096077DBF1C46FD171CC663D90700184E17
:102FE00063C5E700A9476393F500A9AB1C421387AB
:102FF000170018C22380B7002E858280311122C6A7
:1030000026C406C82AC02EC2B2843304D6006394F4
:103010008400014511A883C50400124602455D3FA6
:103020007D578504E315E5FEC2403244A2445101B8
:103030008280130181F722C1A6DE9307F10106C346
:103040002AC032C236C62E8493F487FF01C51851B8
:1030500011E3C1267850058B09EB0357C4001377A1
:10306000072001E7284CEF0000710357C400218BB3
:1030700019C3184805EBA2850245B92B05C57C503C
:10308000858B81CB7D559A400A44F6541301810803
:1030900082808357C40093F70720EDF7284CEF0098
:1030A000A06DCDB713070002A38CE400B24713074D
:1030B000000323AA0400238DE4003ECA92471306AE
:1030C000500283C6070099C26399C60A1247B386A5
:1030D000E7406380E7023A86A28502453EC836C6CD
:1030E000313F7D566306C51CD048B2463696D0C8DF
:1030F000C24783C60700638D061A7D57850723A044
:10310000040023A60400D8C023A40400A38104045F
:1031100023AC040483C50700154617D5FF0F13051C
:10312000E54F3EC2EFE0AFE49247138717009440AB
:1031300039E513F6060109C613060002A381C4048B
:1031400013F6860009C61306B002A381C40483C522
:1031500007001306A0026380C504D4443E8781455E
:103160002545A94203460700130606FD1303170071
:103170006379C5068DC9D4C43DA0850799B717D614
:10318000FF0F1306A649118D05463316A600D18EF2
:1031900094C0BA8741B75246930546002ECA1042E2
:1031A000634A0602D0C4034607009306E002631098
:1031B000D606034617009306A002631AD602D2462B
:1031C0001386460032CA9442090763D30600FD56AF
:1031D000D4C035A83306C04093E62600D0C494C0BE
:1031E000D9B7B38656021A878545B296A5BF05079B
:1031F00023A20400814581462545A94203460700D4
:10320000130606FD13031700637FC506F1F183451E
:1032100007000D4617D5FF0F1305C5403AC2EFE072
:103220000FD5124711CD97D6FF0F9386A63F158D68
:103230001306000494403316A600D18E050794C0EF
:103240009307170083450700194617D5FF0F13058D
:10325000A53D3EC2238CB400EFE06FD125CD17E72A
:10326000FFFF130747C715E798405246137707102B
:103270009306860019C39306460036CAD848A2476B
:103280003E97D8C825BDB38656021A878545B296A3
:10329000B5B7580897060000938686D62286A6857D
:1032A0000245EFD01FC32AC47D57A247E398E7FC2D
:1032B0007850058B01EB0357C4001377072019E3FF
:1032C000284C5D290357C40013770704E31C07DA71
:1032D000C84855BB580897060000938666D22286D8
:1032E000A6850245EFE08F9F7DBF611122C006C217
:1032F0002A842316B5002317C500232005002322A6
:103300000500232405002322050623280500232A7F
:103310000500232C0500214681451305C505B1296B
:1033200097070000938727175CD0970700009387C3
:1033300087191CD4970700009387471D5CD4970713
:103340000000938707201CD800D0938701F9630AF7
:10335000F400938781FF6306F400938701066318E6
:10336000F4001305840502449240210121A19240FA
:1033700002442101828017D6FF0F130666CD9715F0
:1033800000009385258717D5FF0F1305A5C77DA0DE
:10339000611122C006C24C41938701F92A846384DB
:1033A000F500EF00F0040C44938781FF6385F5007E
:1033B0002285EF00F0034C44938701066388F500F3
:1033C00022850244924021016F0090029240024403
:1033D00021018280711197070000938707FA014647
:1033E0009145138501F906C023A2F1F0FD3D054684
:1033F000A545138581FFD53D82400946C945138502
:1034000001061101DDB51385C1F0B5A61385C1F024
:10341000A5A6611122C006C22A84F5371C5089C7AF
:10342000024492402101DDB797070000938787F699
:103430001CD083A741F0EDF7713FDDB7111122CA0F
:1034400026C806CC2AC02E87328481440C445440BE
:10345000FD1663DA0600004075F8E2405244268506
:10346000C2447101828003D5C50005466370A6027F
:103470000395E5007D56630BC500024536C62EC494
:103480003AC20297C98CB246A24512479385850677
:10349000C1B7611122C02E848395E50006C2992C24
:1034A000634905007C48AA977CC8924002442101E8
:1034B00082808357C4007D777D17F98F2316F4002F
:1034C000EDB703D7C500311122C626C406C82AC0ED
:1034D00032C2137707102E84B68411C78395E50096
:1034E00089460146D5220357C400FD76FD16831593
:1034F000E400758F2316E400324412460245C240B0
:10350000A686A244510189A4611122C02E8483950C
:10351000E50006C2552A7D578357C400631BE500AA
:103520007D777D17F98F2316F40092400244210124
:1035300082800567D98F2316F40068C8FDB783958C
:10354000E500B9AA311122C626C406C82E84AA8471
:10355000B28511C51C5181E732C0653D82459C4D45
:103560009CC583D7C500A18B99C39C4989EF26854B
:103570002EC09D20824501C97D542285C24032441F
:10358000A244510182809C4988411D8DDC491377FA
:10359000F40F1374F40F6349F50026853AC22EC068
:1035A000812D8245124769F99C45FD179CC59C41B8
:1035B0009386170094C12380E7000505DC496389E1
:1035C000A70083D7C500858BCDDBA947E317F4FAA5
:1035D0002685392D5DD14DB7511126C0AA8417D546
:1035E000FF0F032525BF22C206C42E8401C51C512E
:1035F00091E305358317C40013F7870021EB13F718
:10360000070109EB254798C093E707042316F40048
:103610007D559DA8918B8DC74C5889C9930744044B
:103620006384F5002685792E232A04028357C4007B
:103630002322040093F7B7FD2316F4001C481CC096
:103640008357C40093E787002316F4001C4881EFDA
:103650008357C4001307002093F707286385E7000A
:10366000A28526858D2D8317C40013F7170015C377
:1036700058483307E0402324040018CC184801457B
:1036800001E713F7070849F3A240124482443101CD
:10369000828013F72700814611E3544814C4F9BF10
:1036A000611122C02A842E8523AC01EE06C2EFC030
:1036B000BFC2FD576316F50083A781EF91C31CC0FD
:1036C0009240024421018280611122C02A842E8509
:1036D000B285368623AC01EE06C2EFC07FC8FD5727
:1036E0006316F50083A781EF91C31CC0924002448A
:1036F00021018280611122C02A842E85B2853686FE
:1037000023AC01EE06C2EFC03FC6FD576316F500BD
:1037100083A781EF91C31CC09240024421018280A3
:10372000611122C02A842E8523AC01EE06C2EFC0AF
:103730007FE0FD576316F50083A781EF91C31CC09E
:103740009240024421018280611122C02A842E8588
:10375000B285368623AC01EE06C2EFC0BFE0FD574E
:103760006316F50083A781EF91C31CC09240024409
:10377000210182808280828082803D432A87637318
:10378000C3029377F700BDEFADE5937606FF3D8A60
:10379000BA960CC34CC30CC74CC74107E36BD7FEAA
:1037A00011E28280B306C3408A0697020000969613
:1037B0006780A6002307B700A306B7002306B7005B
:1037C000A305B7002305B700A304B7002304B7007F
:1037D000A303B7002303B700A302B7002302B70077
:1037E000A301B7002301B700A300B7002300B7006F
:1037F000828093F5F50F93968500D58D93960501FC
:10380000D58D61B793962700970200009696868221
:10381000E78086FA9680C1171D8F3E96E374C3F841
:10382000A5B7B3C7A5008D8BB306C50081E78D474B
:1038300063E2C702AA876362D50E828003C70500D0
:1038400085078505A38FE7FEE39AD7FE4244B2447D
:103850005101828093773500B9EFAA8713F7C6FF2D
:103860003303F74013060002635C660A311122C875
:1038700026C632C43306F74022446340C4043E8661
:103880002E83636FE6061383D7FF014663666700E6
:103890000D071D8F1376C7FFB297B295E3F8D7FADD
:1038A00065B703C7050085078505A38FE7FE13F7F6
:1038B000370065FB65B7AA87DDBF9049C04132C0BC
:1038C000D049C0C332C20244844183A3850083A28D
:1038D000C50003A38501D04D80CB938545021244DA
:1038E000D0CF84C323A4770023A65700C0CB23AC3A
:1038F000670003A6C5FF9387470223AEC7FE9DBF9F
:103900008322030023205600110311069DBF03C725
:10391000050085078505A38FE7FEE39AD7FE828021
:103920003E862E836360E6021383D7FF01466366FB
:1039300067000D071D8F1376C7FFB297B295E3EEB0
:10394000D7FC828083220300232056001103110636
:10395000D1BF97D7FF0F83A7E7876111328306C2D4
:10396000AA822E87C847368697D7FF0F938747CD01
:103970006317030097D7FF0F938707A33E831AC0EF
:10398000968697D5FF0F9385A5CCD924352133B7DB
:10399000C502511106C422C23386C50209CB314784
:1039A00018C101442285A240124431018280B285AF
:1039B00032C0EFE07FCB2A8475D502468145EFF017
:1039C000DFDBCDB7C5C1511122C206C483A7C5FF35
:1039D0001384C5FF63D307003E942AC0EFE07FDA6B
:1039E000138701F01C43024589EB2322040000C326
:1039F0001244A24031016FE05FD9637DF4001040B2
:103A0000B306C4006396D7009443B29614C0DC4357
:103A10005CC0F1BF3E87DC4399C3E37DF4FE1443F1
:103A20003306D700631F86001040B29614C33306D6
:103A3000D700E39FC7FA9043B296DC4314C35CC33C
:103A400045BF6375C400B1471CC15DB71040B306E4
:103A5000C4006396D7009443B29614C0DC435CC0A4
:103A600040C379B7828099ED7111014511CA79552A
:103A700081CA83470600034506003EC03335A000D7
:103A800011018280014519CA795589CA8347060008
:103A90009CC1034506003335A0008280828091CD11
:103AA0009307F00F63F7C7009307A0081CC17D556B
:103AB00082802380C500054582800145828003976E
:103AC000C500311122C606C826C493768700AA878E
:103AD0002E84E9EAD4416345D000B441635DD00A45
:103AE0000323C4026309030A84439316370123A006
:103AF00007000C5063DE060670480357C400118BA4
:103B000019C75840198E585819C33840198E58543F
:103B100081463E850C503EC00297FD560357C400B7
:103B20008247631DD5009043F54663E8C606B70695
:103B300040208506B3D6C600858AA5C2144814C0A5
:103B4000232204009316370163D806007D576314BF
:103B5000E500984311E368C884C34C588DCD130722
:103B600044046384E5003E85B13D232A040225A078
:103B700001463E8585463EC002937D572A86824790
:103B8000E31DE5F6984335DBF5466305D700D946D6
:103B90006311D70484C30145A1A093670704C2073A
:103BA000C18725A8904965DA84410D8B90C1918C1D
:103BB000814611E3D44914C4E35F90FC3E85185458
:103BC000A6860C5032C23EC0029782471246634E10
:103BD000A0008317C40093E707042316F4007D5563
:103BE000C2403244A244510182802A96898CE9B7AE
:103BF000511106C422C226C09C4981EB8144A240D7
:103C000012442685824431018280AA842E8409C50B
:103C10001C5199E3EFF0EFFF8317C400E5D3785010
:103C2000058B19E793F7072081E7284CEFF0BFB425
:103C30002685A28569357C50858BAA84E9F3835754
:103C4000C40093F70720C5FF284CEFF0FFB245BF33
:103C5000211132C42E86AA8517C5FF0F032585576B
:103C600036C6340006C23AC83ECA36C0EFF06FBC52
:103C7000924061018280AE878395E5005971A6D29A
:103C800086D6A2D4B28463D1050283D7C70093F746
:103C9000070895EF130700409CC298C0B650265401
:103CA00096540145656182801304F1006198228673
:103CB00036C23EC04D2882479246E34805FC3D6728
:103CC0005C40F98F7977BA9793B71700E1B78147CE
:103CD00013070004D1B703D7C500111122CA06CCBF
:103CE00026C82AC0098B2E8401CF1307740418C07C
:103CF00018C8054758C8E2405244C2447101828046
:103D0000740030008D3FA245AA8402452EC2EFE028
:103D1000BF95924501ED0317C40093760720E1FE9D
:103D2000719B136727002316E400C1B70357C40033
:103D300008C008C8136707082316E4004CC83247B8
:103D400009CF8315E4000245A12001C90357C4002F
:103D5000719B136717002316E4000357C400458FB7
:103D60002316E40049BF611122C02A842E85B28542
:103D700023AC01EE06C2EFC02FDBFD576316F50042
:103D800083A781EF91C31CC092400244210182802D
:103D9000611122C02A842E8523AC01EE06C2EFC039
:103DA000EFDAFD576316F50083A781EF91C31CC0BE
:103DB00092400244210182807111194506C09D2064
:103DC0000545EFC02FD2511122C206C4FD472A84F7
:103DD00063F9B700D9471CC17D55A2401244310197
:103DE00082805C5D2E8691C713972500BA97984311
:103DF00019EB228532C09520AA85228512440246FD
:103E0000A240310135A00545630CA700FD5663159E
:103E1000D700D9471CC0D1B723A007002E85029731
:103E2000014565BFAA8517C5FF0F0325A53A61BFE8
:103E3000611122C02A842E85B28523AC01EE06C210
:103E4000EFC04FD1FD576316F50083A781EF91C3F3
:103E50001CC092400244210182806FC0AFCE2A83F1
:103E6000AE82639006202A87B287138541DF63FE06
:103E7000C50AC1666374D60A9336061093B6160057
:103E80008E06B353D6001E9503450500AA969303EC
:103E900000023385D340638BD300B395A200B356A1
:103EA000D300B317A600D58D3317A30013D3070192
:103EB000B3D3650213960701418293560701B3F508
:103EC00065021E85B3027602C205CD8E63FC5600E4
:103ED000BE961385F3FF63E7F60063F5560013857E
:103EE000E3FFBE96B3865640B3D5660242074183D0
:103EF000B3F666023306B602C206558FAE86637B02
:103F0000C7003E979386F5FF6366F7006374C700AA
:103F10009386E5FF4205558D81458280B7030001F8
:103F2000E146E37076F6C146A9BF814609CAC1667B
:103F3000637DD6089336061093B616008E06B355E9
:103F4000D6002E9583450500AE9693050002338575
:103F5000D5406393D5083386C240854513D3070106
:103F6000B353660293960701C18213550701337656
:103F70006602B38276024206498E1E85637C560035
:103F80003E961385F3FF6367F6006375560013854D
:103F9000E3FF3E9633065640B35266024207418322
:103FA00033766602B38656024206518F1686637BCD
:103FB000D7003E971386F2FF6366F7006374D7005D
:103FC0001386E2FF4205518D8280B7050001E1466C
:103FD000E377B6F6C146A5B7B3D5D200B317A600AE
:103FE000B392A200B356D30033E6560093D2070132
:103FF000B3D355023317A30013950701418193569C
:104000000601B3F5550233037502C205CD8E9E85B8
:1040100063FC6600BE969385F3FF63E7F60063F5E5
:1040200066009385E3FFBE96B386664033D356029F
:1040300042064182B3F6560233056502C206558E2A
:104040009A86637CA6003E969306F3FF6367F600AC
:104050006375A6009306E3FF3E96C205098ED58DD3
:10406000F5BD63E4D514C16763FDF60213B706100E
:10407000133717000E07B3D5E600938741DFAE97DD
:1040800083C70700BA9713070002B305F74063110F
:10409000F702054563EE56103335C300133515009E
:1040A0008280B70700016147E3F7F6FC4147E1B7BB
:1040B0003397B600B356F600D98E611133D7F200AC
:1040C00022C213D4060126C0B3548702B392B200B1
:1040D000B357F300B3E757009392060193D202015E
:1040E0003316B60033778702B383920213150701A4
:1040F00013D70701498F2685637C77003697138590
:10410000F4FF6367D700637577001385E4FF369784
:1041100033077740B3538702C207C18333778702DF
:10412000B38272024207D98F1E8763FC5700B6978D
:104130001387F3FF63E7D70063F557001387E3FFA7
:10414000B6974205598D9316070113140601C182D3
:104150009353050141804182B3875740B382860261
:104160003384830213D70201B386C602A296369720
:10417000B383C30263748700C166B6939356070185
:104180009E9663EED700639DD700C202420793D28A
:1041900002013313B300169781456374E3007D1564
:1041A00081451244824421018280814501458280FB
:1041B0008280370310007D13B372B300311113D71F
:1041C00045019357D5013373D30026C49374F77F09
:1041D0001397320093D246010E0322C6D98F13D40F
:1041E000F5011357D60193F2F27F06C8FD823367BB
:1041F00067000E050E06338354409305F07F63106D
:10420000D420635A600C63960202B366C70085C26D
:104210009302F3FF639B02002A96B336A6003E97F3
:104220003285B307D700854489A8631AB3009A84FE
:1042300049A26380B418B7068000558F9A8293060E
:10424000800363C55608FD461303000263CD560480
:1042500033035340B3166700B3555600331366005B
:10426000CD8E33336000B3E6660033575700369582
:104270003E97B336D500B307D70013978700635A2C
:10428000071285041307F07F638FE446370780FF2A
:104290007D17F98F135715000589498F1395F7017D
:1042A000598D858339A2938602FEB356D700814586
:1042B0006388620093050004B3855540B315B700C9
:1042C000D18DB335B000CD8E014755B7B366C70069
:1042D000B336D000D5BF6300030AB386924091EC99
:1042E00033E3A700630803001383F6FFE30603F23A
:1042F000639BB600BA87328509A2638BB23EB705CD
:104300008000CD8F36839306800363C16606FD4629
:104310009303000263C96602B3836340B3967700D8
:10432000B3556500B3137500CD8EB3337000B3E69B
:104330007600B3D767003696BA97B336D600328583
:10434000B69796841DBF930603FEB3D6D70081456A
:104350006308730093050004B3856540B395B70007
:10436000C98DB335B000CD8E8147F1B7B3E6A70054
:10437000B336D000D5BF9386140013F3E67F6311E4
:104380000306B3E6A700B1E463880636B366C70048
:104390008DC22A96B336A6003E97B307D70013976F
:1043A0008700328563570700370780FF7D17F98F35
:1043B000854413777500630107361377F50091463E
:1043C000630CD7343307D500B336A700B6973A85C8
:1043D000A1A663860632598E63110622AE84D1BF30
:1043E0006382B6322A963335A6003E972A97131574
:1043F000F7010582518D93571700B6845DBF635452
:10440000600C63920208B366C700E38206E293067B
:10441000F3FF81EE3306C540B336C5003387E7406E
:104420003285B307D7408544A9A0E302B3E09305E2
:10443000800363C6D508FD459302000263CCD50412
:10444000B382D2403353D600B3155700B31256008F
:10445000B3E56500B332500033E65500B356D700DC
:104460003306C5403337C500B386D7403285B3879E
:10447000E64013978700E35E07F2B7058000FD155D
:10448000FD8D2A837DA2E386B4F2B7068000558FA6
:104490009A8671BF938506FEB355B70001436388C2
:1044A0005600130300043303D34033136700336310
:1044B000C3003333600033E66500814655B7598E3B
:1044C0003336C000DDBF6300030CB383924085E840
:1044D00033E3A700630103021383F3FF631B0300AD
:1044E0003305A6401D8F3336A600B307C740368478
:1044F0001DBF639CB300BA8732859E8475A0638715
:10450000B220B7058000CD8F1E839305800363C75B
:104510006506FD451304000263CD65023304644063
:10452000B3958700B353650033148500B3E5750078
:1045300033348000C18D33D36700B305B6403303F5
:1045400067403336B6002E85B307C3409684368461
:104550000DB7930503FEB3D5B7008143630883000D
:1045600093030004B3836340B3937700B3E3A300E2
:10457000B3337000B3E575000143C1B7B3E5A700DD
:10458000B335B000D5BF138314001373E37F631CEE
:104590000306B3E2A7003363C700B1E463980200E7
:1045A000630C030EBA873285368421B5E30303E03A
:1045B0003303C540B3326500B385E740B38555404A
:1045C0009392850063DA02003305A6401D8F3336CF
:1045D000A600B307C740C9BF3365B300630C05121B
:1045E000AE871A85F9B36398020063080300BA879F
:1045F00032853684E5B3E30303DE0144B7074000A8
:104600000145AE8411AAB302C540B3335500B3854A
:10461000E740B385754093938500168363D90306FD
:104620003305A6401D8F3336A6002A83B305C74045
:104630003684ADC52E851AC22EC0EF10006A9306CF
:1046400085FF8245124393070002958FB395D500ED
:10465000B357F300CD8FB315D30063C49608858E8E
:10466000138316007D4713060002634A670433066E
:1046700066403395C70033D765003396C500598D22
:104680003336C000518DB3D7670081441DB3B3E208
:10469000B200E39002FA81440144B5A01A852EC20B
:1046A0001AC0EF10806393068501FD4702439245CF
:1046B000E3DBD7F8930785FFB317F30079BF8516BF
:1046C00033D5D70001476308C3001307000433073D
:1046D00067403397E7004D8F3337E000598D8147AE
:1046E0006DB7370780FF7D17958CF98F2E85D1B177
:1046F000BA873285968475B9BA8732855DB9BA872B
:104700003285E9B9B6848147014539A0BA87328537
:10471000968459BD8147014413978700635B070066
:1047200085041307F07F6388E404370780FF7D1753
:10473000F98F9396D7010D811307F07FC98E8D8372
:104740006399E400DD8E814789C6B707080081467A
:104750000144139744013706F07FB207718FB1838C
:104760007E04D98F33E78700C2403244A2443685A5
:10477000BA85510182808147014565BF1301C1FDA2
:1047800026CCAE841397C500B682D18193D6F401AE
:1047900006D022CE93F5F57F36C43183C1C593068A
:1047A000F07F6388D50E1354D5010E07B70780003C
:1047B000598C5D8C938415C0931735000143139772
:1047C000C2009353C70093D6420113D7F20193F668
:1047D000F67F3AC6F9CE1307F07F6389E614139586
:1047E00033001357D601498F37058000B363A70004
:1047F000938616C0131536000147B386D44022466F
:10480000B24536C0931623002D8ED98E32C2FD16C6
:104810003946636AD612138681DB8A06B2969442C1
:10482000B29682863364A70025CC16C832C615CF4F
:104830002AC23A853AC0EF10404AAA87930555FF2D
:10484000024712433246C2427544938687FF0D8C5D
:104850003317D70033548300598C3317D300930593
:10486000D0C0B384F540BA8791BF3AC22AC0EF10D6
:10487000C04693055501F1469307050202431247CE
:104880003246C242E3D2B6FC130485FF33148300E0
:10489000F9B73364A70009E88147AE84094305B737
:1048A00081478144054321BFAA873A84AE840D43E2
:1048B00039B733E5C30049C1638403041E8532CA96
:1048C0001AC83EC21EC0EF104041AA86930255FF8F
:1048D00082439247424352467547138586FF33070A
:1048E0005740B393A3003357E60033677700B31301
:1048F000A6001306D0C01E85B306D640BA83EDBD10
:1049000032851ECA1AC83EC232C0EF10003D930263
:104910005501714793060502024692474243D2432E
:10492000E35C57FA61153317A600E1B733E5C3001E
:1049300001E981430947D1B581438146054775BDEA
:1049400032850D475DBD63E68300631C742A63EA0C
:10495000A72A9316F40113D717001393F7010580C4
:10496000B3E7E6001397830093540701B35694020C
:1049700013568501598E1317060141833AC493D506
:10498000070193128500337494023307D70242045F
:104990004D8CB685637CE40032949385F6FF6367A3
:1049A000C4006375E4009385E6FF3294198CB35616
:1049B0009402131706014183C207C1833374940222
:1049C00036853307D7024204C18F63FCE700B297F4
:1049D0001385F6FF63E7C70063F5E7001385E6FF7D
:1049E000B297C205C98D998F93960201139705015D
:1049F000C18213D4020113D505014183B383E602BA
:104A000036C43307E402B306D50233058502369770
:104A100013D4030122976374D700C1663695C2038D
:104A20009356070193D3030142071E97AA963AC4EF
:104A300063E7D700AE836392D7046370E304330562
:104A40005300333465003307C400BA979383F5FFEE
:104A50002A836365F6006312F60205E063E7D70078
:104A6000639DF6002247637AE50016959383E5FF80
:104A7000B3355500B2952A83AE9722473307E340FA
:104A8000B386D7403333E300B38666407D55630079
:104A9000D61033D5960293170601C183B385A702BA
:104AA000B3F7960293560701C207D58FAA8663FC17
:104AB000B700B2979306F5FF63E7C70063F5B70049
:104AC0009306E5FFB2978D8F33D5970293150601B4
:104AD000C18142074183B3F797022A83B385A502B8
:104AE000C2075D8F637CB70032971303F5FF6367DE
:104AF000C7006375B7001303E5FF3297C206B3E63C
:104B000066001394020193D7060141800D8F13951F
:104B100006019395020133838702418113D4020178
:104B2000C181B305B5023305A402B307F4021A9597
:104B300013D4050122956374650041639A9713535A
:104B40000501C2054205C1819A97AA956366F700DF
:104B5000631EF718368585CD32971385F6FF3A83A5
:104B60006361C7026366F7006311F71863FDB20063
:104B70001385E6FF9396120033B3560032933A93AF
:104B8000B6826314F30063845500136515008247F1
:104B90009386F73F6358D00A9377750081CF937758
:104BA000F50011476388E700B307E50033B7A700B6
:104BB000BA933E859397730063DA0700B70700FF47
:104BC000FD17B3F3F3008247938607409307E07F16
:104BD00063CCD704935735001395D3015D8D93D7DC
:104BE0003300B2071247D206B183D58F1316F701EF
:104BF0008250724433E7C700E244BA851301410290
:104C0000828002477D173AC00143A9BB22473AC2BE
:104C1000A2833E851A878D47630BF70A8547630F8A
:104C2000F70A8947E315F7F6814701459306F07FB8
:104C30004DBFB2473EC2C5B7B7030800014502C227
:104C40000D47D1BF8547958F130780036348F70849
:104C50007D47634AF70402479306E7413397D30041
:104C60003356F500B316D500518FB336D000558FAB
:104C7000B3D7F3009376770081CE9376F700114691
:104C80006388C600B306C70033B6E600B29736871E
:104C90009396870063C706041395D7010D83598D3A
:104CA0008D8381463DBF0557158F1306000233D70C
:104CB000E30081466387C70082479386E743B39644
:104CC000D300C98EB336D000558F814765B7B7077B
:104CD000080001459306F07F02C221B781470145D4
:104CE000C9B7814701458546EDBDAA86368571BDA8
:104CF000B7071000FD175111B3F2B70013D74501E4
:104D0000FD8122C426C22A832A842EC01377F77F0E
:104D100093D546011305F07FF58FB28493F5F57FA7
:104D2000FD82631AA700B3E362000545639903029D
:104D30006397E50219A06395A5005D8E054505E220
:104D40000545631EB700639CF200631A9400824716
:104D5000638BD70009E733E562003335A0002244B6
:104D60009244310182800145DDBF611113D34501B9
:104D7000B7071000FD1722C226C02A87AA84137322
:104D8000F37F13D546011304F07FB3F2B700B2836B
:104D9000F58FFD811375F57FFD826315830033E484
:104DA000E20029E81304F07F6315850033E4C700AF
:104DB00031E001446316030033E7E20013341700C7
:104DC00005ED5D8E11C431C2139516007D1535A811
:104DD0000DE63305B04005A8E348A3FEE3EB57FE1C
:104DE0006397F200E3E793FE014563F074021395C5
:104DF0001500E9BF795511A861F8E39CB6FCE35DA5
:104E000065FC3305D040136515001244824421012E
:104E10008280611113D34501B7071000FD1722C22C
:104E200026C02A87AA841373F37F13D5460113047F
:104E3000F07FB3F2B700B283F58FFD811375F57F74
:104E4000FD826315830033E4E20029E81304F07F58
:104E50006315850033E4C70031E0014463160300A5
:104E600033E7E2001334170005ED5D8E11C431C243
:104E7000139516007D1535A80DE63305B04005A83D
:104E8000E348A3FEE3EB57FE6397F200E3E793FEEC
:104E9000014563F0740213951500E9BF094511A897
:104EA00061F8E39CB6FCE35D65FC3305D040136517
:104EB000150012448244210182801301C1FD9397A1
:104EC000C50026CCAE84D18122CE06D093F5F57FE5
:104ED0002A84B183FD806385051E1307F07F6385F7
:104EE000E5248E071357D5015D8FB7078000D98F52
:104EF000938515C01317350001431394C60093D250
:104F00004601FD8293F2F27F36C43180638B022228
:104F10009306F07F6385D22A9356D6010E04C18E84
:104F20003704800013153600558C138612C0814655
:104F30002E9632C2050632C013162300558EA9459F
:104F400063CDC532A2458942AD8C854563C8C22870
:104F50007D1663F3C52A9355070193560501420751
:104F60004205418341813386D5023303A70232C40F
:104F7000B383A50213560301B382E6029E921696EE
:104F800063777600B383D502C1629E9216C4420352
:104F9000935206011353030142061A9632C8135660
:104FA0000401420441803303870216C63307E60238
:104FB00093530301B382850216971E97B385C502EA
:104FC00063745700C16296954203935207011353CD
:104FD00003014207B303670032471E973AC613D74F
:104FE0000701C2079695C1833383E6022ECAB386B2
:104FF000F602B305F5023305A702AA96B68293D648
:105000000501969663F4A60041652A93C20513D55F
:105010000601C181C206AE96B305F4021A953304A7
:1050200087023307E6023306F60293D7050122967C
:105030003E9663748600C1673E97C205131306014E
:105040003244A247C181A2979A9552443383850086
:10505000B3B377009A93BE961E95B3B7F600AA979E
:10506000B335B30033B3630033E36500B333750086
:10507000418233B5A700B3E3A30032939A93BA9366
:10508000139596004247598D3335A000DD82A60363
:1050900013D47701558DA6075D8D9397730033E484
:1050A000830063DC0700935715000589C98F13152A
:1050B000F4015D8D824705803EC292473EC0B1A299
:1050C00033E7A70025CB36C432C28DCF3E853EC024
:1050D000EF00B040930555FF82471246A246754344
:1050E000130785FF3303B340B397E70033536400DE
:1050F0003363F300B317E4009305D0C03E87898D76
:105100009A87DDBB3EC0EF00503D2A8793055701CB
:1051100071431305050282471246A246E351B3FCD0
:1051200061173313E400C9BF33E7A70001EB8147E0
:105130000943E1B3814781450543C1B32A870D4344
:105140006DBB3365C40059C131C0228532CA3EC827
:105150003AC62EC21AC0EF005038930255FF0243E0
:1051600092453247C2475246F546930385FFB386C0
:10517000564033147400B356D600C18E33147600F3
:105180001306D0C0098E2285368455B332853ECAB7
:105190003AC82EC61AC232C0EF003034AA869382B3
:1051A0005601F1431305050202461243B245424738
:1051B000D247E3DB53FAE116B316D600D1B7336515
:1051C000C40009E90144168689469DB3014401469D
:1051D0008546B9BB32858D46168699BBB395C50009
:1051E00013F605534DE213F30524631C031293F5E4
:1051F0008508E38205D6A2448947638FF6108D4760
:105200006387F61285476388F61282479386F73FD5
:10521000635FD0069377750081CF9377F5001147D0
:105220006388E700B307E50033B7A7003A943E85EB
:105230009317740063D90700B70700FFFD177D8C33
:105240008247938607409307E07F63C7D70C0D81A1
:105250001316D401498E93573400B20713974601B1
:10526000B183FE04D98F33E7970082507244E24441
:105270003285BA85130141028280BD456309B60AB1
:10528000AD45E30AB6F63E843A859A86B5B78547BA
:10529000958F130780036340F70A7D47634AF7043D
:1052A00002479306E7413317D4003356F500B3168F
:1052B000D500518FB336D000558FB357F400937695
:1052C000770081CE9376F70011466388C600B30657
:1052D000C70033B6E600B29736879396870063CF50
:1052E00006041396D7010D83598E8D838146B5B779
:1052F0000557158F130600023357E4008146638774
:10530000C70082479386E743B316D400C98EB336ED
:10531000D000558F814765B7814701469306F07FDE
:105320002DBFB70708009306F07F81443DB7B7074C
:1053300008000146CDBF814701464DBF8147014668
:10534000854621BF370310007D13B372B3003111BE
:1053500013D745019357D5013373D30026C49374F3
:10536000F77F1397320093D2460122C6D98F13D408
:10537000F5011357D6010E0306C893F2F27F930589
:10538000F07F0E05FD82336767000E066395B2005D
:10539000B365C70099E193C6160033835440930563
:1053A000F07F63908620635A600C63960202B366B6
:1053B000C70085C29302F3FF639B02002A96B336AF
:1053C000A6003E973285B307D700854489A8631AA3
:1053D000B3009A8449A26380B418B7068000558F41
:1053E0009A829306800363C55608FD4613030002A4
:1053F00063CD560433035340B3166700B3555600CC
:1054000033136600CD8E33336000B3E66600335746
:10541000570036953E97B336D500B307D70013979C
:105420008700635A071285041307F07F638DE446F3
:10543000370780FF7D17F98F135715000589498FAE
:105440001395F701598D858339A2938602FEB356D1
:10545000D70081456388620093050004B3855540F9
:10546000B315B700D18DB335B000CD8E014755B718
:10547000B366C700B336D000D5BF6300030AB38656
:10548000924091EC33E3A700630803001383F6FF17
:10549000E30603F2639BB600BA87328509A26389EB
:1054A000B23EB7058000CD8F36839306800363C17B
:1054B0006606FD469303000263C96602B383634038
:1054C000B3967700B3556500B3137500CD8EB33333
:1054D0007000B3E67600B3D767003696BA97B33656
:1054E000D6003285B69796841DBF930603FEB3D6C9
:1054F000D70081456308730093050004B3856540B8
:10550000B395B700C98DB335B000CD8E8147F1B7E3
:10551000B3E6A700B336D000D5BF9386140013F3CB
:10552000E67F63110306B3E6A700B1E4638606369F
:10553000B366C7008DC22A96B336A6003E97B3075E
:10554000D70013978700328563570700370780FF1E
:105550007D17F98F854413777500630F0734137730
:10556000F5009146630AD7343307D500B336A70058
:10557000B6973A8591A663840632598E6311062246
:10558000AE84D1BF6380B6322A963335A6003E97EB
:105590002A971315F7010582518D93571700B6848A
:1055A0005DBF6354600C63920208B366C700E38278
:1055B00006E29306F3FF81EE3306C540B336C5001D
:1055C0003387E7403285B307D7408544A9A0E3027B
:1055D000B3E09305800363C6D508FD45930200023E
:1055E00063CCD504B382D2403353D600B3155700F1
:1055F000B3125600B3E56500B332500033E65500F0
:10560000B356D7003306C5403337C500B386D740FD
:105610003285B387E64013978700E35E07F2B7054C
:105620008000FD15FD8D2A837DA2E386B4F2B706C6
:105630008000558F9A8671BF938506FEB355B700DB
:10564000014363885600130300043303D34033132C
:1056500067003363C3003333600033E6650081467F
:1056600055B7598E3336C000DDBF6300030CB383DA
:10567000924085E833E3A700630103021383F3FF3D
:10568000631B03003305A6401D8F3336A600B30706
:10569000C74036841DBF639CB300BA8732859E84A1
:1056A00075A06385B220B7058000CD8F1E8393055A
:1056B000800363C76506FD451304000263CD6502E0
:1056C00033046440B3958700B353650033148500F9
:1056D000B3E5750033348000C18D33D36700B30563
:1056E000B640330367403336B6002E85B307C34058
:1056F000968436840DB7930503FEB3D5B700814376
:105700006308830093030004B3836340B39377007B
:10571000B3E3A300B3337000B3E575000143C1B731
:10572000B3E5A700B335B000D5BF138314001373DE
:10573000E37F631C03063363C700B3E2A700B1E451
:1057400063980200630B030EBA873285368421B555
:10575000E30303E03303C540B3326500B385E7409C
:10576000B38555409392850063DA02003305A64065
:105770001D8F3336A600B307C740C9BF3365B300DA
:10578000630A0512AE871A85F9B3639802006308AD
:105790000300BA8732853684E5B3E30303DE0144B0
:1057A000B70740000145AE8401AAB302C540B33338
:1057B0005500B385E740B385754093938500168304
:1057C00063D803063305A6401D8F3336A6002A830F
:1057D000B305C7403684A5C52E851AC22EC0F5294B
:1057E000130785FF8245124393070002998FB395F3
:1057F000E500B357F300CD8FB315E300634397087B
:10580000058F13031700FD461306000263C96604E3
:10581000330666403395C70033D765003396C5001D
:10582000598D3336C000518DB3D76700814425B3FD
:10583000B3E2B200E39102FA81440144ADA01A85BB
:105840002EC21AC0592913078501FD47024392450C
:10585000E3DCE7F8930785FFB317F30045B70517B7
:1058600033D5E70081466308C30093060004B3867E
:105870006640B396D700CD8EB336D000558D8147A4
:1058800075B7998C370780FF7D17F98F2E85E1B1A9
:10589000BA8732859684C1B1BA8732856DB9BA8725
:1058A0003285F9B9B6848147014539A0BA87328576
:1058B000968469BD8147014413978700635B0700A5
:1058C00085041307F07F6388E404370780FF7D17A2
:1058D000F98F9396D7010D811307F07FC98E8D83C1
:1058E0006399E400DD8E814789C6B70708008146C9
:1058F0000144139744013706F07FB207718FB183DB
:105900007E04D98F33E78700C2403244A2443685F3
:10591000BA85510182808147014565BFB7071000F4
:10592000FD1733F7B700D181F58F93F5F57FD1825D
:105930001303F07F93F6F67F63956500498F054565
:1059400019E7014563956600D18F3335F0008280F9
:1059500013D7450137061000AA869307F6FF137781
:10596000F77F1305E03FED8FFD816354E5041305D8
:10597000D0416357E500370500807D152E95828064
:10598000D18F13063043198E7D45634DC500130733
:10599000D7BE3395E700B3D6C600558D81CD33050C
:1059A000A0408280930630413387E64033D5E7003C
:1059B000F5B701458280511106C422C226C021CD0F
:1059C0009357F54133C4A7001D8C9354F5012285EC
:1059D00029269306E041A947898E63C8A702AD47EF
:1059E000898F55053317A400B357F4002685B207F5
:1059F000B183D2067E05DD8EB3E7A600A240124435
:105A000082443A85BE85310182805515B317A400C2
:105A100026850147E9BF81468147E5BF611122C064
:105A200006C22A841DCD552C1307E041A947098FD2
:105A300063C4A702AD47898F5505B357F4003314EB
:105A4000A400B2075207B183228592400244B36694
:105A5000F700B685210182805515B317A4000144D3
:105A6000CDB781470147F1BF130141FC9307710294
:105A7000C19B22DC26DA5045184598C73AC813174F
:105A800006015441418303230500D4C336C63ACAF4
:105A9000931616003800D0C723A067001AC4C58229
:105AA0007D829302C1FFBA87CC4788478E057581F6
:105AB000C98DCCC7F117E39957FE938716001315CC
:105AC0003300939517012AC4C98163880514F177BF
:105AD00093870740BE969307E07F63CFD716635541
:105AE000D004C245D24793D2C50192073247B3E7EB
:105AF00057003EC693174700C98F71839205B3378D
:105B0000F0004D8FD98F324793F57700638A0514E3
